:100000000C9437030C945F030C945F030C945F0310
:100010000C945F030C945F030C945F030C945F03D8
:100020000C945F030C945F030C945F030C945F03C8
:100030000C9487140C945F030C943F150C94F015EA
:100040000C945F030C945F030C945F030C945F03A8
:100050000C945F030C945F030C945F030C945F0398
:100060000C945F030C945F030C945F030C945F0388
:100070000C945F030C945F030C945F030C941115B4
:100080000C94EB140C945F030C945F030C945F03CB
:100090005F00030304040406050A1400FC0DFC0DB4
:1000A0000001EA03BB0557200500086B2108D20CAC
:1000B0006A3C9808220B469A6A889824A108002373
:1000C00019B919EA498412A1447408498412A14457
:1000D0007408498412A144062417D809EA092D2A74
:1000E00014994426111A2532894C425131CA0025EF
:1000F00014C909EA8C24BAD02662B9582E96CC28A5
:100100007A9A002619D9096A4D2542895022248BF2
:10011000A712A148429BC844131249002708528CD9
:100120006A1C2400280DD50BEA89D444321D65428F
:1001300005290ED50A6A08D584329D642235002A25
:100140000E7839EA88B4910E219A480B002B0C786E
:1001500039EA89D50E31B11A002C0834FBE94C2C50
:10016000002D0718696A1C022E07330C6A1C042F25
:1001700010C70AEA2A4A8552A15428154AA5003018
:1001800011D809EA4969222D421E25226D54190011
:10019000310DD809EA49873489587F3B043212D897
:1001A000096AD144122151AC2A1C4A95C5870033F3
:1001B00014D8096AD1441221512C15CEE544A24429
:1001C0002423013414D8096A87A5439A44A42293AE
:1001D000C82487A8580B003512D8096A1CC6BA8CE7
:1001E0004672B1982811C948003615D8096AD14419
:1001F000126144AC321A49841C25221909003712B5
:10020000D8096A1CC2AA62A9582A968AA56229003E
:100210003815D8096AD1441221A34424A389244261
:1002200046894846023914D8096AD14412214789BF
:100230006845AC1294886424003A08830C6AD8A1FB
:10024000063B0A94FBE9ACA34D2C003C0BD7096A92
:1002500047857AD673003D0A68396A1CE2381E0267
:100260003E0BD70A6A84F551AF61003F10D8096A86
:10027000D1441221A354B33A5C2C034016D8096A26
:10028000D1441221C97291502414098B485D26AAC9
:1002900000410FD809EA4969222D42C6439147011E
:1002A0004215D8096AD4446A1299442611894C32FD
:1002B00089909BC4044310D8096AD1441221593F44
:1002C0004A44321200440DD8096A98641221FF4D45
:1002D0006202450DD8096A1CC63A9BC43A1F024601
:1002E0000CD8096A1CC63A9BC47A064711D8096A19
:1002F000D1441221599391A34434A204480CD80943
:100300006A08F97828F25100490CD8096A1C62621F
:10031000FDB743004A0FD909EA59E5FA492692A9DF
:100320004887004B14D8096A08D924328948534DAC
:10033000A49B44261112054C0AD8096A88F53F1F70
:10034000024D14D8096A088925D3C122A148281270
:100350008A84C851004E12D8096A086B35938922E5
:10036000A148486E8D44014F0FD8096AD14412212B
:10037000FF2811C94800500FD8096A986412216FEC
:1003800012935867005111E8F969D14412217F9105
:10039000902822595D005212D8096A986412216F80
:1003A000129336894C22240A5313D8096AD1441275
:1003B00021592EA72B132522190900540BD8096A9D
:1003C0001C6262FD6F00550DD8096A08F91F2522CD
:1003D000190900560FD8096A08394A447A23B28AA3
:1003E000D5005712D8096A08F922A14828128AA410
:1003F000642A12055813D8096A08891291362255C1
:100400004AA489B4088902590FD8096A0889129147
:10041000362255AC6F005A0FD8096A1CC2AACA52BC
:1004200065A9B2F8105B0AD60A6A1C82FA8F065CCC
:1004300010C70A6A48C552B1542C154BC552015D0C
:100440000AD60A6A18F51F0F015E0B4899EA496936
:10045000228950005F0719F9691C04600734AB6AF0
:10046000C814610E88096A956462C941C828A90444
:100470006211D8096A88F5321A49841C4B12C908DE
:1004800000630D88096A956464ED32510500640EBD
:10049000D8096AEB69A254E42811AD08650F8809F0
:1004A0006AD14412E1A12C97892A00660DD809EA85
:1004B000D1443A0B8D627D046713C8C9E95466358F
:1004C000894C221395E41621A3C402680DD8096A49
:1004D00088F5321A49847C14690CB809EA89E55018
:1004E000B2BE1D026A0EF7CAE9AAC3A8FA4A63930C
:1004F00054006B11D8096A88F52611A9C88835916E
:100500009A44286C0AD809EA90F5BF1D026D138839
:10051000096A44540E1309454291502414094501B7
:100520006E0C88096A48462389908F026F0E8809ED
:100530006AD144122147894846027011C8C96948E6
:100540004623899063492219893503710EC8C96908
:100550004D948A1C25A215B10E720C88096A484870
:10056000238958AF00730D8809EA588474BB982812
:10057000B100740DB8096A89158D623DC9280075EE
:100580000B88096A08F92811AD08760E88096A08EF
:100590008912913622552C03771088096A08B948C8
:1005A00028128AE430114900781088096A08252247
:1005B00019552CA5892442017910C8C96908F92860
:1005C00011AD888912918C047A09870A6A5C857A50
:1005D0003D7B0CD8096AD2C4BAD1C5BA137C07D204
:1005E0000C6A7C287D0DD8096AD0C5BAD3C4BA116B
:1005F000017E0B38A9EA8C2812D204000000000406
:10060000FFFF0000000000000000000000000000EC
:1006100000000101010000000203000000000100D1
:1006200000010203040506070300010200010203A2
:10063000020304050405060705050000000000008C
:10064000000002020202030303030505050503037C
:100650000303020101020408102040800801020483
:10066000010204080408102010204080B016112454
:100670001FBECFEFCDBFDFE3DEBF18E2A0E0B8E2E0
:10068000EDE1F4E402C005900D92AA33B107D9F769
:100690002CE2AAE3B8E201C01D92A733B207E1F74A
:1006A00013E0C7E3D3E004C02197FE010E948F1D31
:1006B000C633D107C9F70E947F180C94A2210C946D
:1006C0000000662329F06A3019F0862F90E0089523
:1006D0008FEF9FEF0895AF92BF92CF92DF92EF928C
:1006E000FF920F93CF93DF93EC01DA017901942FFE
:1006F0009770E1E0F0E09F01092E01C0220F0A94FB
:10070000EAF7522F6E018AE8C80ED11CF6018081EB
:1007100040E0823018F4422F813049F15D01F8EF5A
:10072000AF22E8ADF9AD28813981D90150968C917D
:100730008A9D90018B9D300D1124620F731FDF0184
:10074000A60FB71F01111AC0EA0EFB1E8C91842B55
:1007500085278D93AE15BF05C9F7DF91CF910F9116
:10076000FF90EF90DF90CF90BF90AF90089550E052
:10077000D5CF440F550FE114F10479F33C91342B9C
:1007800035273C939F5F9770E1E0EE1AF1089111D5
:10079000F0CF2CAD3DADA20FB31FF60180818230AA
:1007A00028F4813009F051E041E0E5CF51E0E3CF9A
:1007B00080E0089590E080E008959B01DC011896A8
:1007C000ED91FC9141E067E10994FC015489458970
:1007D000252F30E0842F90E0821B930B541710F0EC
:1007E000CF96089501970895FC01928983899817FF
:1007F00061F0A389AE0FBF2FB11D59968C919389DB
:100800009F5F9F73938B90E008958FEF9FEF089504
:10081000FC0192898389981731F08389E80FF11DD3
:10082000818D90E008958FEF9FEF0895FC019289EC
:100830002389892F90E0805C9F4F821B91098F73E1
:1008400099270895CF93DF93EC01E881F981028421
:10085000F385E02D0995EC85FD8586818F73868370
:10086000EC85FD8585818F7585838B898A8B198AB7
:10087000DF91CF910895CF93DF93FC01948985890F
:10088000C485D585981306C08D818F7D8D83DF91BA
:10089000CF910895A589AE0FBF2FB11DA75ABF4FA5
:1008A0002C91858990E001968F739927858B80E440
:1008B0008C83A485B58512962C93A485B585149652
:1008C0008C91149785FFFBCF948985899813DFCF8E
:1008D00015968C9115978F7D15968C938789882313
:1008E000B1F2808D80931301178AD1CFEF92FF92DE
:1008F0000F931F93CF93DF93EC0181E0898B9C8949
:100900008D8998131CC0AC85BD8514968C91149765
:1009100085FF15C012966C93AC85BD8580E4149656
:100920008C93EC85FD8585818F7D858381E090E0CA
:10093000DF91CF911F910F91FF90EF9008958091DB
:10094000110180FF08C080911301888F8E898093E8
:10095000130181E08F8BF62E0C8910E00F5F1F4F83
:100960000F731127E02E8D898E110CC00FB607FE74
:1009700005C0EC85FD85858185FDF5CFCE010E9402
:100980003B04F1CFEC89EC0FFD2FF11DE75AFF4F2F
:10099000F0820C8BEC85FD8585818062C6CFCF937C
:1009A000DF93FC0121892223F9F0EC0180911101F0
:1009B00080FF08C080911301808F86898093130186
:1009C00081E0878BEC85FD85858185FD03C0848171
:1009D00086FD0AC00FB607FE03C0858185FDF2CFF4
:1009E000CE010E943B04EECFDF91CF9108958EE7B8
:1009F0009AE20E94160421E0892B09F420E0822F5C
:100A0000089580E090E0892B49F080E090E0892B08
:100A100029F00E94000081110E94000080E090E017
:100A2000892B29F00E94F70481110C94000008958D
:100A300090E0FC01EE5AF94F24912F3F11F1FC0197
:100A4000E85CF94FA49130E2A39FD0011124BC5F70
:100A50006130710519F411962C930895FC01E25E42
:100A6000F94FE491EF3F71F0CD014096E80FF92F77
:100A7000F11D9FB7F89412962C9380818860808333
:100A80009FBF0895F0E0E0E0F4CF90E0FC01EC5F60
:100A9000F94FE491EE2321F1E13021F008F1E63045
:100AA000B0F00895825E994FFC0184914091010A53
:100AB0008C5F21E030E0B90102C0660F771F8A9594
:100AC000E2F7CB01809584238093010A089570E1B9
:100AD000E79FF0011124E05AF54F81818F7E8183D9
:100AE0000895FF920F931F93CF93DF93C82FD0E009
:100AF000FE01EE5AF94FF4909FEFF916B1F08B0119
:100B00008A3110F40E944505FE01E85CF94FA4917A
:100B100080E2A89FD0011124BC5F8C918F21A1F0AD
:100B20000115110541F41696FC92DF91CF911F91AA
:100B30000F91FF9008950230110519F41796FC9259
:100B4000F4CF1596FC92F1CFFE01E25EF94FE491ED
:100B5000109779F0EF3F69F05096EA0FFB2FF11DE7
:100B60009FB7F8948081012B39F4877F80839FBFE2
:100B7000DCCFF0E0E0E0F4CF8860F8CF1F93CF93B4
:100B8000DF938A31E8F4C82FD0E0FE01EE5AF94F26
:100B900014911F3FA9F00E944505C85CD94FFE0182
:100BA000C491F0E2CF9FE0011124DC5FE885E123EE
:100BB00081E090E009F480E0DF91CF911F910895EA
:100BC00080E090E0F9CF8A3110F40C94710508951B
:100BD0008A3110F40C94180508958F929F92AF9269
:100BE000BF92EF92FF920F931F93CF93DF93EC018D
:100BF0004A015B01E22E8989882339F0E881F98175
:100C00000088F189E02DCE01099598898091E2054F
:100C1000892B8093E205FFB6F8946091302870919B
:100C20003128809132289091332823E0660F771F76
:100C3000881F991F2A95D1F7A50194010E943B1D99
:100C40002F5F3F4F4F4F5F4F5695479537952795ED
:100C5000EC85FD8586818D7F8683EC85FD8586818B
:100C60008683198A80912311E82F880FFF0BDF01FB
:100C7000BC5F0E94871D0C851D85AF01F7FF03C077
:100C800051954195510920E034E0241B350B032E8A
:100C9000000C440B550B0E945D1DF8012087318725
:100CA000EC85FD85E782EC85FD858681806C8683F9
:100CB000EC85FD858581806885838E8562E070E0A6
:100CC0000E94E8058F8561E070E00E94E3058F8552
:100CD00061E070E00E94E805FFBEDF91CF911F91B7
:100CE0000F91FF90EF90BF90AF909F908F900895DD
:100CF000CF93DF938FB7F89420919C2930919D2951
:100D000040919E2950919F29E0918A0A9091860AEC
:100D100090FF06C02F5F3F4F4F4F5F4FE0918A0A11
:100D20008FBFA0919A29B0919B29C0919829D09109
:100D300099290E947C1DEC9F9001ED9F300D11249C
:100D4000620F731F811D911DDF91CF9108958F92C6
:100D50009F92AF92BF92CF92DF92EF92FF924B01A0
:100D60005C010E9478066B017C01A8EEB3E0A5014E
:100D700094010E947C1DC60ED71EE81EF91EC616E1
:100D8000D706E806F90618F40E947806F8CF0E9404
:100D900078066C157D058E059F05C8F3FF90EF90D2
:100DA000DF90CF90BF90AF909F908F9008952FB716
:100DB000F894609194297091952980919629909149
:100DC00097292FBF08950C9400000895AF92BF9209
:100DD000CF92DF92EF92FF920F931F93CF93DF9307
:100DE0006C017B018B01040F151FEB015E01AE1836
:100DF000BF08C017D10759F06991D601ED91FC9158
:100E00000190F081E02DC6010995892B79F7C50184
:100E1000DF91CF911F910F91FF90EF90DF90CF90D6
:100E2000BF90AF90089581E008950F9391E0909363
:100E30008529109284296093822970938329409395
:100E400081292093802910927F2910927E29009376
:100E50007D29880F80937C2923E030E044E050E036
:100E600080918129882341F020937A2930937B292E
:100E700080917C298E7F0BC080918029882351F03E
:100E800040937A2950937B2980917C2981608093BB
:100E9000A70808C080918129811104C08091802910
:100EA000882311F3809184298823E1F38091842998
:100EB0008330B1F280918029882321F080917E29AE
:100EC0000F9108959091842981E09130C9F780E0D5
:100ED000F7CFE0EAF8E091859066918722E030E074
:100EE00020937A2930937B2980936C2910926B2967
:100EF000089581E080936B2910926C2993E0909380
:100F0000AA089091AB0891FF10C010927829E09147
:100F10006929F0916A2909958093772985E090E005
:100F200080937A2990937B29089510927929809350
:100F3000762986E090E0F4CF8F929F92AF92BF9295
:100F4000CF92DF92EF92FF92CF93DF9360342DE048
:100F5000720723E08207910508F44EC0611525E36E
:100F600072072CE08207910508F43FC060387F4487
:100F70008241910508F040C0C8E7D0E020E432E4A7
:100F80004FE050E08090302890903128A090322897
:100F9000B0903328C501B4010E943B1D69017A015C
:100FA0008AE0C81AD108E108F108DE01A501940120
:100FB0000E947C1D20E03AEC4AE95BE30E943B1D65
:100FC000C21AD30AE40AF50AF694E794D794C794B0
:100FD000C092A608DF91CF91FF90EF90DF90CF9065
:100FE000BF90AF909F908F900895CCE2D1E020E821
:100FF0003AE146E050E0C6CFC8EED3E020EA36E85A
:1010000041E050E0BFCF609367297093682908954D
:1010100060936529709366290895E0916729F0919E
:101020006829309741F0109264291092632909953C
:1010300080916329089580E00895E0916529F091F9
:101040006629309759F03091622920916129321731
:1010500028F01092622980936129099408950895D7
:10106000E091622980916129E81730F4F0E0EF51B6
:10107000F74D808190E008958FEF9FEF0895909154
:101080006229809161292FEF3FEF981748F4E92FEB
:10109000F0E0EF51F74D208130E09F5F909362299F
:1010A000C90108958091612990916229891B990B4A
:1010B0000895CF92DF92EF92FF920F931F93CF93F9
:1010C000DF937C018A01EB016B01C40ED51ECC15A8
:1010D000DD0551F06991D701ED91FC910190F0810E
:1010E000E02DC7010995F3CFC801DF91CF911F9182
:1010F0000F91FF90EF90DF90CF900895209163299A
:1011000027FF08C021E030E0FC012283338390E018
:1011100080E0089580916429E82FF0E0EF59F74DC1
:1011200060838F5F809364298093632981E090E0DE
:101130000895DC01ED91FC910688F789E02D61E0CE
:1011400009940F9380917A2990917B290197A1F4BA
:1011500080918529811112C0062F20E040916329DA
:1011600061E678E2809160280E9415071092642958
:10117000109263290F91089580E0F8CF81E0F6CFB7
:101180006093602810926429109263290895DC010D
:10119000ED91FC91028CF38DE02D21E009940F93E9
:1011A00081EE98E280936D2990936E2980917A293F
:1011B00090917B290197C1F480918529811116C0F6
:1011C000FA014138510510F0E0E8F0E0022F862FD7
:1011D0002E2F40E070E060E00E9415071092622917
:1011E000809361290F91089580E0F8CF81E0F6CFD8
:1011F000CB01BA010C949C07E0EAF8E01382168256
:1012000081E085831486118610927A2910927B29B9
:101210000895109262291092612910926429109207
:10122000632980917A2990917B29892BD9F482E0D6
:1012300090E080937A2990937B29109279291092DB
:10124000782910926B2910926C2910925F281092C5
:101250007629660F6093AC0881EE8093A90881E03F
:101260008093A3088DE098E08093692990936A2980
:1012700081E698E280936F29909370298DE198E040
:10128000809374299093752981EE98E28093712957
:101290009093722980E880937329089510926229AF
:1012A00010926129109264291092632980917A2901
:1012B00090917B29892BF9F48091E30580618093DB
:1012C000E30581E090E080937A2990937B29109246
:1012D0007E2910927F29109285291092842981EC11
:1012E0008093A30860EA76E881E090E00E949C0782
:1012F00081E08093A5080895DC011A96ED91FC9198
:1013000030E020E00994DC011696ED91FC9130E08C
:1013100020E040E069E10994DC011696ED91FC9132
:1013200030E020E040E068E109949A01DC01169683
:10133000ED91FC91462F67E10994EF92FF920F9394
:101340001F93CF93DF931F92CDB7DEB77C018B0144
:10135000D8016C91673129F150F46531A0F40F90F8
:10136000DF91CF911F910F91FF90EF9008956A3117
:1013700018F16E3FA1F7F8014181498369E2C70185
:101380000E947C090BC0F80141814983D701169660
:10139000ED91FC9130E020E0C70109950E5F1F4FF1
:1013A000D7CFF80181818983AE014F5F5F4F61E044
:1013B000C7010E949509F2CF0F5F1F4FD701169604
:1013C000ED91FC9130E020E040E0C7010995C0CFED
:1013D000462FDC011696ED91FC9130E020E066E1AD
:1013E0000994462FDC011696ED91FC9130E020E047
:1013F00065E10994EF92FF920F931F93CF93DF93D0
:10140000EC01042F79016D3009F446C050F46B30C3
:10141000C9F1693009F49FC06A3009F465C080E001
:1014200046C06E3009F452C06F3099F70E948C09A3
:10143000F7011381110F110F110F6C89160F60E462
:10144000CE010E94F109612F62956F706061CE013B
:101450000E94F109612F6F70CE010E94E809F70127
:101460006481606BCE010E94E809F70140815181DF
:101470006281660F660F660FCE010E9495090150CA
:10148000A1F72EC06BE573E8442311F066E573E81D
:10149000CE010E949D090AC0411110C06FE473E89B
:1014A0000E949D09E881F98182898C8B81E0DF911E
:1014B000CF911F910F91FF90EF90089568E473E82A
:1014C0000E949D09E881F9818389EFCF0E948C09F0
:1014D00061E8CE010E94F109602FCE010E94E80967
:1014E000CE010E948309E2CFEA85FB8530E020E04F
:1014F00040E068E2CE010995EE81FF8130E020E016
:1015000040E064E1CE01099541E06BE4CE010E9428
:101510007C09E881F981448169E2CE010E947C095D
:1015200040E06BE4CE010E947C09E881F9814481AE
:1015300069E2CE010E947C0941E06BE4CE010E9489
:101540007C09E881F981458169E2CE010E947C092C
:1015500060E673E89DCF85E993E8888399831C8AC8
:10156000A5CFDC011896ED91FC9130E020E040E041
:1015700069E10994DC011896ED91FC9130E020E0DE
:1015800040E068E10994CF93DF931F92CDB7DEB7B7
:101590006983BE016F5F7F4F0E94DD030F90DF9173
:1015A000CF910895EF92FF921F93CF93DF93EC01B9
:1015B000162F7A010E94BA0A60E4CE010E94C30A83
:1015C000E885F9859701412F67E1CE010995CE01A4
:1015D000DF91CF911F91FF90EF900C94B10AEF92A1
:1015E000FF921F93CF93DF93EC01142F79016631A3
:1015F00081F138F4643109F44BC0653179F080E051
:1016000022C06831C9F150F16931C9F780915E2873
:10161000882391F1CE010E94B10A2EC080915E28EC
:10162000882319F0CE010E94B10ACE010E94BA0AA5
:1016300060E0CE010E94C30A612FCE010E94C30A5E
:1016400081E080935E28DF91CF911F91FF90EF9012
:101650000895642F0E94C30A81E0F5CF80915E282F
:10166000882319F0CE010E94B10AA701193138F47C
:10167000612FCE010E94D20A10925E28EDCF68E160
:10168000CE010E94D20A185188E1E80EF11CEDCF7C
:101690008E898F3F11F488E78E8BE885F985970155
:1016A000412F64E1CE01DF91CF911F91FF90EF9028
:1016B00009940F93FC01E05CFF4F0190F081E02D55
:1016C0004E1B5F0BDC01D496ED91FC9109950F91B7
:1016D0000895CF93DF93FC01A081B18182AD90E0AA
:1016E0009C0143E0220F331F4A95E1F726AF37AF45
:1016F00050962C91509748E0249F9001112424AFDC
:1017000035AF23AD30E0B90153E0660F771F5A952E
:10171000E1F7EF01C05CDF4F6883798351964C910C
:101720005197E901C80FD91F50E04C175D0718F415
:10173000CA01821B930BEF01CE5BDF4F6883798375
:10174000229623E0880F991F2A95E1F7860F971FAD
:1017500088839983229654968D919C91559788837E
:101760009983E85BFF4F56968D919C91808391837E
:10177000DF91CF9108950F931F93FC01E25BFF4F20
:101780000190F081E02DDC01A05BBF4F0D90BC917A
:10179000A02D4A175B0740F4E017F10748F0041743
:1017A000150730F080E019C0E017F107C0F3FACF59
:1017B000FC01E65BFF4F40815181845B9F4FFC0140
:1017C000808191816817790758F481E042175307A7
:1017D00020F081E02617370728F71F910F91089511
:1017E00042175307B0F3DECF2F923F924F925F9292
:1017F0006F927F928F929F92AF92BF92CF92DF9221
:10180000EF92FF920F931F93CF93DF93CDB7DEB785
:101810002A97CDBFDEBF89879A87865B9F4F8983D2
:101820009A83FC0110821182E985FA85EA5BFF4FF9
:101830004080518029853A85245B3F4F2B833C8330
:10184000F90140825182E985FA85EE5BFF4F2080E5
:10185000318029853A85225B3F4F2D833E83F901F4
:1018600020823182E985FA85EC5BFF4F60807180D0
:1018700029853A85205B3F4F2F833887F9016082A5
:101880007182E985FA85E85AFF4FE080F180E985A9
:10189000FA85EC5AFF4FA080B180E985FA85EA5AB3
:1018A000FF4FC080D180E985FA85EE5AFF4F8080D6
:1018B000918087019501A601B40189859A850E94CE
:1018C000BB0B29853A852C573F4F29873A878111D1
:1018D00018C0F90110822A96CDBFDEBFDF91CF91EB
:1018E0001F910F91FF90EF90DF90CF90BF90AF903E
:1018F0009F908F907F906F905F904F903F902F9030
:10190000089581E0E985FA8580838114910421F0AE
:10191000E981FA8180829182A414B50420F4EB81DC
:10192000FC81A082B1822C143D0420F4ED81FE8163
:10193000C082D182E614F70470F6EF81F885E08268
:10194000F182C9CF0F93CF93DF93E02FDC01AC5727
:10195000BF4FFC91FF2309F460C02115310509F444
:101960005CC02230310538F0023009F04AC06F5FA8
:101970007F4F621B730B0E2F0170E0FD52C0FC0104
:10198000E25BFF4F0190F081E02D4E175F0708F4F6
:1019900044C0FC01E05BFF4F0190F081E02D4E1749
:1019A0005F07D8F5FC01E45BFF4F0190F081E02D6B
:1019B000DC01A65BBF4F0D90BC91A02D260F371FF9
:1019C0002617370738F56E177F0718F59F01215046
:1019D0003109A217B30708F56A177B0708F4BD01A0
:1019E0002E173F0708F4F901E61BF70BEC01AEA92F
:1019F000BFA914960D90BC91A02D9F01FD010995E2
:101A00000CC0033009F0B7CF4F5F5F4F421B530B41
:101A1000B2CFBD016E177F07E0F2DF91CF910F913A
:101A20000895FC01E65BFF4F0190F081E02D6E17F9
:101A30007F0798F3FC01E45BFF4F0190F081E02DFC
:101A40006E177F0750F7FC01E05BFF4F0190F081BC
:101A5000E02DDC01A25BBF4F0D90BC91A02D240FA7
:101A6000351F24173507A8F44E175F0788F49F0128
:101A700021503109A217B30780F64A175B0708F413
:101A8000AD012E173F0708F4F901E41BF50BAECFAB
:101A9000AD014E175F0708F6EDCF2F923F924F92A0
:101AA0005F926F927F928F929F92AF92BF92CF92EE
:101AB000DF92EF92FF920F93CF93DF93CDB7DEB714
:101AC0002697CDBFDEBF4C013B014D835E8379017C
:101AD0005B018FEFA81AB80A2901461A570ACA01F2
:101AE000880D991D89839A8301E09501A201BC01AB
:101AF0008DE99BE20E94A20C64019FEFC91AD90AEA
:101B00001701281839088D819E81860D971D8B83BA
:101B10009C839601A101BC018DE99BE20E94A20C6D
:101B20008D819E81881999094C019501A201BC0102
:101B30008DE99BE20E94A20C8D819E8186199709F6
:101B40008D839E839601A101BC018DE99BE20E94D9
:101B5000A20C9501A70169817A818DE99BE20E941F
:101B6000A20C9601A7016B817C818DE99BE20E940A
:101B7000A20C9501A701B4018DE99BE20E94A20C81
:101B80009601A7016D817E818DE99BE20E94A20CE6
:101B90002696CDBFDEBFDF91CF910F91FF90EF90E2
:101BA000DF90CF90BF90AF909F908F907F906F907D
:101BB0005F904F903F902F900895213069F038F05A
:101BC000223079F0840F911D47FD9A950895860F74
:101BD000911D67FD9A950895841B910947FD939582
:101BE0000895861B910967FD93950895213069F04A
:101BF00038F0223079F0861B910967FD939508959E
:101C0000840F911D47FD9A950895860F911D67FDDC
:101C10009A950895841B910947FD939508953F92E5
:101C20004F925F926F927F928F929F92AF92BF92EC
:101C3000CF92DF92EF92FF920F931F93CF93DF9398
:101C40007C01162F442EEC01C25ADF4F5E806F805C
:101C50006C018AE8C80ED11C78847518312E711673
:101C600008F4372C8C809D800E85202F462D652D05
:101C70008A819B810E94DD0D5C01202F462D652D00
:101C8000C4010E94F60DAC01442079F08C85F60168
:101C90008083232D30E0B501C7010E94A20C1715E7
:101CA00048F017196394512CD7CF8B858111F7CF4A
:101CB0008D85EDCF150D1E836F82DF91CF911F9122
:101CC0000F91FF90EF90DF90CF90BF90AF909F90DB
:101CD0008F907F906F905F904F903F900895DC01C0
:101CE0001A964C911A97ED91FC911197249130E03E
:101CF000042E02C0359527950A94E2F7842F860FAB
:101D0000883068F03196ED93FC931197E49198E058
:101D1000941B01C0EE0F9A95EAF72E2B88501A9665
:101D20008C938FEF9FEF01C0880F6A95EAF780953B
:101D300082230895FC01E60FF11D849190E0982F15
:101D400088273196E4918E0F911D08954F925F92EE
:101D50006F927F928F929F92AF92BF92CF92DF92BB
:101D6000EF92FF920F931F93CF93DF93EC016B01E0
:101D70008A017901FC01E459FF4F8081813009F427
:101D80004BC008F43EC0823009F451C0833009F4DE
:101D900059C0FE01E05AFF4FC082D18232960083C3
:101DA000118338978081918147962FEFE216F104D5
:101DB00011F008F0F2C0E1E6EE16F10408F44DC0AF
:101DC000FE01E058FF4F20813181820F931F9C015B
:101DD0002F5F3F4FF9014491411148C090E080E0EE
:101DE000DF91CF911F910F91FF90EF90DF90CF90F7
:101DF000BF90AF909F908F907F906F905F904F902B
:101E00000895FE01E45AFF4F0190F081E02DCE01CC
:101E10000995080F191FBDCFFE01E45AFF4F01902D
:101E2000F081E02DCE010995C81AD90AB2CFFE0182
:101E3000E45AFF4F0190F081E02DCE010995081B77
:101E4000190BA7CFFE01E45AFF4F0190F081E02D5E
:101E5000CE010995C80ED91E9CCFF1E4EF16F1040E
:101E600008F4B5CFFE01E258FF4FADCFFC0144911D
:101E70004E151F0409F08CC00296009709F4AECFEE
:101E80007E01FEE5EF0EF11CF7018083918312863F
:101E900073966081C7010E946F0EF7018087749668
:101EA0006081C7010E946F0E982EF70181875E0145
:101EB000FAE8AF0EB11CF5019081F701948781E03B
:101EC000911180E0F7018587FE01ED58FF4FC0803A
:101ED0006C2DC7010E946F0E582EFE01EC58FF4F6B
:101EE000D0806D2DC7010E946F0E482EFE01EB5869
:101EF000FF4F1081612FC7010E946F0E9FEF910F5E
:101F000001E010E0980101C0220F9A95EAF7882EAF
:101F1000821AF701608416140CF0ADC0CA94C8018F
:101F200001C0880FCA94EAF7581A7684490CDA94EB
:101F3000A80101C0440FDA94EAF7F42FF4194F2EE8
:101F4000272D4F2F652DF701828193810E94DD0D92
:101F50006C01F70182839383272D442D652D8481A5
:101F600095810E94F60DF70184839583F1E07F1639
:101F700009F485C07F1608F43FC022E0721609F408
:101F80008DC0E3E07E1609F49DC0BC0196013EC001
:101F9000F9012491820F911D1ACFFE01EE57FF4FD8
:101FA00000811181080F191F680160E0C6010E94BD
:101FB0009A0E080F191F62E0C6010E949A0EF4E003
:101FC000CF0ED11C8E159F0580F3F801849190E00F
:101FD000982F88273196E4918E2B009709F4FECE36
:101FE000E816F90619F4C801039647CFF8013296AE
:101FF000E4910E0F111DE9CF9601260D311D67FCEE
:102000003A95BC01690D711D97FC7A958B01AC0165
:10201000B601CE010E94BB0B882369F1F70116823D
:1020200017828E0101591F4F6E01F0E7CF0ED11CB0
:10203000F8016081C7010E946F0E682EF601608171
:10204000C7010E946F0E782E40E0662DCE010E94DF
:102050000F0E41E0672DCE010E940F0E61E0C70117
:102060000E946F0E8111F0CFF7018781891504F36B
:102070008485F5018083882D880C990BB1CE0919D0
:10208000110997FC139596012F5F3F4FBC01660D18
:10209000711D67FC7A95C00ED11EB8CFA8014619F4
:1020A000510967FC539596012F5F3F4F091911099C
:1020B00097FC1395BC016F5F7F4F800F911FC40E7B
:1020C000D51EA4CF9601290D311D97FC3A9506190E
:1020D000110967FC1395BC016F5F7F4F800F911F43
:1020E00095CFCF92DF92EF92FF920F931F93CF93F2
:1020F000DF938C011092B52B7B01D12CC12CD0E049
:10210000C0E0F70161917F01E0919F2BF091A02B3E
:102110008DE99BE209958F3F980719F18E3F2FEFCC
:10212000920779F39C01A801BE018DE99BE20E9410
:10213000A60E2091092C213059F038F0223059F0A8
:10214000233061F0C80ED91EDCCFC80FD91FFACFDB
:10215000080F191FF7CFC81BD90BF4CF081B190B99
:10216000F1CFC601DF91CF911F910F91FF90EF90BA
:10217000DF90CF900895CF93DF93EC016BAFEEA982
:10218000FFA90190F081E02D0995EEA9FFA9028039
:10219000F381E02DCE01DF91CF910994AF92BF92F0
:1021A000CF92DF92EF92FF920F931F93CF93DF9323
:1021B000CDB7DEB72597CDBFDEBF8C01DC01DA9647
:1021C000AC90DA97DB96EC90DB97ED91FC91B188BF
:1021D000FE2CD12CC12CD801ED91FC911197808956
:1021E000D8962D913C911C82FD828B83B8E08B9F09
:1021F000C00111248C9DA0018D9D500D9C9D500D02
:102200001124240F351F29833A83D8011496ED91A8
:10221000FC919E012F5F3F4F41E06FE0C80109959F
:10222000F3948F2D8E198A1528F4BFEFCB1ADB0A91
:10223000FB1488F22596CDBFDEBFDF91CF911F91B1
:102240000F91FF90EF90DF90CF90BF90AF900895E7
:10225000CF93DF93EC01683189F130F4643199F068
:10226000673151F080E005C06931B9F16032D1F7D2
:1022700081E0DF91CF91089550E0B90180EA99E2C1
:102280000E945908F5CF8C859D85AE85BF85892B29
:102290008A2B8B2B71F4E881F981A585B0E020EAC7
:1022A00036E841E050E00E947C1D6C877D878E8778
:1022B0009F8780EA99E20E944E09DACF6C857D857E
:1022C0008E859F850E949C076E8970E07595679545
:1022D00080EA99E20E94C008CBCF80EA99E20E948E
:1022E0009908C6CF0F931F93CF93DF938C016C3265
:1022F000C0F46A3208F040C0683269F1693209F40A
:102300004BC080E06034C8F16F73F801E60FF11D37
:10231000868D8F3F89F1603108F058C0642F70E0DE
:1023200017C06D3209F43FC060F384EB860F823032
:1023300040F7C62FCF73C00FD12FD11D8E8D61E016
:1023400070E041113EC00E94E80570E060E08E8DB3
:102350000E94E30511C0025E1F4FD0E0F801819199
:102360008F018F3F31F061E070E0D03158F40E946E
:10237000E805DF5FD63191F781E0DF91CF911F91C2
:102380000F9108950E94E80561E070E0F80131972F
:1023900080810E94E305EDCF642F70E090E080E043
:1023A0000E94A706E9CF85E090E0433010F082E07C
:1023B00090E0880F991F880F991F05970197F1F7F3
:1023C000DBCF0E94E80561E070E0C1CF0E94BE054E
:1023D00021E0892B09F420E0F801218FCDCFCF92A5
:1023E000DF92EF92FF920F931F93CF93DF93EC0155
:1023F0000E94D7060D851E852F853889AB01BC014B
:10240000401B510B620B730B8F8190E0B0E0A0E09A
:10241000481759076A077B0708F429C10E94D706A5
:102420006D877E878F87988BEE80CE2CD12C8A810A
:102430000E94BE057C0188810E94BE058C018981B5
:102440000E94BE05EC24FD24EE0CFF1CEE0CFF1CCC
:10245000000F111F082B0E290B838C81902F9827BA
:10246000937009F45FC094E0899F90011124802F3C
:102470008370822B8C838B3409F050C08FEF898F4F
:102480008D8110E01595079515950795082700FF94
:102490001AC00E94D70609891A892B893C89AB0189
:1024A000BC01401B510B620B730B888590E0B0E0C0
:1024B000A0E084179507A607B70758F48D8180FD23
:1024C00033C081E08D830E94D706698B7A8B8B8B1A
:1024D0009C8B8D81833009F477C040F5882309F403
:1024E0004EC0813009F474C0898D9A8D8111C1C0AC
:1024F000911187C01B8E9B8D9111CDC09A8D933009
:1025000009F481C0943009F485C0DF91CF911F9107
:102510000F91FF90EF90DF90CF900895873811F4DE
:1025200081E0ADCF198EACCF86E0CCCF843051F1B5
:102530008630D1F614E01D8383E08A8F8CA19DA1A3
:10254000892BB1F00E94D706CD88DE88EF88F88C01
:10255000AB01BC014C195D096E097F098B859C8517
:10256000B0E0A0E0481759076A077B0708F41A8F04
:102570000E94D7066D8B7E8B8F8B988FB5CF87E0AF
:102580008A8FB2CF8A8D84508230C0F40E94D706E1
:102590000D891E892F89388DAB01BC01401B510B61
:1025A000620B730B89859A85B0E0A0E084179507CC
:1025B000A607B70718F41D8286E0E2CF8A8D833024
:1025C00009F092CF85E0DCCF87E08D831A8E8CCF27
:1025D00093E09D839A8D9650923090F282E0D0CF16
:1025E00095E09B8FEC8DFD8D309709F452C00995D5
:1025F00081E081CF963028F097E09B8FE8A1F9A188
:10260000F3CF80E078CF92E09B8FEAA1FBA13097D7
:1026100029F47BCF83E08B8FECA1FDA1099581E0AC
:1026200074CF91E09B8FEEA1FFA1F1CF943041F4E4
:102630009A8D913009F069CF9B8FEAA5FBA5E7CF72
:10264000963051F49A8D9150923008F05ECF91E01F
:102650009B8FECA5FDA5DBCF973009F056CF9A8D67
:10266000913009F052CF9B8FEEA5FFA5D0CF80E02F
:102670004CCF992309F4B4CF2CEF290F223020F04E
:102680002B8D263009F0B6CF96E09B8FEE8DFF8D17
:10269000ABCF9B8D80E02EEF290F223038F69A8D3C
:1026A000923009F4BECF963009F02FCF94E09B8F83
:1026B000E8A5F9A5ACCFDC018D919C91DC01ED91F1
:1026C000FC910190F081E02D09941F93CF93DF934B
:1026D000182FCEEAD9E260E98AA59BA50E945B1378
:1026E000612F6F778AA59BA50E945B136FE78AA570
:1026F0009BA5DF91CF911F910C945B13DC01ED91B1
:10270000FC910684F785E02D23E030E0099418164B
:102710006CF48091882990918929843191052CF459
:102720000196809388299093892908958823E9F355
:10273000809188299091892982309105B4F301977D
:10274000F0CF18166CF48091002890910128893000
:1027500091052CF401968093002890930128089508
:102760008823E9F380910028909101281816190612
:10277000B4F70197F0CFCF92DF92EF92FF920F93D1
:102780001F93CF93DF936C01EB017B01E40EF51EE9
:1027900010E000E0CE15DF0561F06991D601ED9102
:1027A000FC910190F081E02DC6010995080F191FD9
:1027B000F1CFC801DF91CF911F910F91FF90EF9062
:1027C000DF90CF900895CF92DF92EF92FF920F9318
:1027D0001F93CF93DF93EC016C0124E0C20ED11C58
:1027E000FC01E057FF4F0190F081E02DC6010995F3
:1027F0008E3FEFEF9E07D8F48E010C561F4FF80165
:10280000408151817E01F2E9EF0EF11CF7016081F8
:1028100071819C01C6010E94A60EC059DF4F28811C
:102820002130C1F078F02230B9F02330E9F081E0B6
:1028300090E0DF91CF911F910F91FF90EF90DF908B
:10284000CF900895F70120813181820F931F8083FB
:102850009183EDCFF801F7CFF70120813181281B5B
:10286000390B20833183E3CFF801F7CFFC01A0813E
:10287000B18150962C9182AD38E0839FC001112424
:10288000289FA001299F500D112470E060E080ADC9
:1028900091AD0C94C91E1F93CF93DF93EC010E945E
:1028A000CE101BAD8AAD180FE881F9818189181708
:1028B00068F0EC81FD8130E020E040E060E1CE0195
:1028C000099580E0DF91CF911F910895FE01E557B2
:1028D000FF4F8081882319F0CE010E943614612FAA
:1028E000CE010E94BB1081E0EDCFCF93DF93EC01CE
:1028F000FC01E557FF4F8081882319F0CE010E942B
:10290000361460E0CE01DF91CF910C94BB101F9282
:102910000F920FB60F9211242F933F934F935F9313
:102920006F937F938F939F93AF93BF93409194291D
:1029300050919529609196297091972980919229BB
:10294000909193292091902930919129420F531F02
:10295000611D711D20918E2930918F29820F931F47
:10296000883E23E0920730F0885E93404F5F5F4FD0
:102970006F4F7F4F8093922990939329409394298E
:1029800050939529609396297093972980919C295B
:1029900090919D29A0919E29B0919F290196A11DFA
:1029A000B11D80939C2990939D29A0939E29B0935B
:1029B0009F2981E08093860ABF91AF919F918F916B
:1029C0007F916F915F914F913F912F910F900FBE2B
:1029D0000F901F9018951F920F920FB60F9211240F
:1029E0002F933F934F935F936F937F938F939F9317
:1029F000AF93BF93EF93FF938EE79AE20E943B045D
:102A0000FF91EF91BF91AF919F918F917F916F91C6
:102A10005F914F913F912F910F900FBE0F901F909C
:102A200018951F920F920FB60F9211242F938F9328
:102A30009F93EF93FF93E0918A2AF0918B2A8181F3
:102A400081FD1BC090818091902A8F5F8F732091B0
:102A5000912A821741F0E091902AF0E0E258F54D7A
:102A6000918F8093902AFF91EF919F918F912F9159
:102A70000F900FBE0F901F9018958081F4CF1F927A
:102A80000F920FB60F9211242F933F934F935F93A2
:102A90006F937F938F939F93AF93BF93CF93EF9356
:102AA000FF93C091AB08C2FF0AC01092792910921F
:102AB00078291092772984E00E94690714C0C6FF24
:102AC0002FC080917629813051F480917929E0914D
:102AD0007429F091752990E0099510927629C0FF2C
:102AE00014C00E947907FF91EF91CF91BF91AF91F0
:102AF0009F918F917F916F915F914F913F912F9116
:102B00000F900FBE0F901F90189580E48093AB0834
:102B100081E00E9469078091AB0885FFE4CFE1CF97
:102B2000C7FF5CC0C3FF08C01092792910927829B2
:102B30001092772983E0C0CF8091A90880668093A6
:102B4000A9088091AB0881FF2CC080917829882347
:102B500049F08091AB0884FF05C082E08093AA0809
:102B600081E0AACF90917829809177299817A8F4CD
:102B7000E091782980916F2990917029E80FF92FC1
:102B8000F11D80818093AD08809178298F5F8093BB
:102B9000782983E08093AA08A6CF82E08093AA08D0
:102BA0008BCF9091792980917329981790F4809117
:102BB000AD08E09179292091712930917229E20FB5
:102BC000F32FF11D8083809179298F5F809379297C
:102BD000E0CF86E08093AA0882E06ECF85E06CCFDC
:102BE0001F920F920FB60F9211242F933F938F9342
:102BF0009F93EF93FF938091A508982F9C70E1F02D
:102C00008091A50894E082FF93E0909384298093BB
:102C1000A50881E090E080937A2990937B29109217
:102C20008529FF91EF919F918F913F912F910F9067
:102C30000FBE0F901F90189586FF4EC020918129DE
:102C4000909180298091A50884FF15C080917D29ED
:102C5000882379F083E08093A40885E08093842919
:102C60001092852981E090E080937A2990937B29C6
:102C7000D8CF81E0F0CF80917F29821790F4E09146
:102C80007F298091822990918329E80FF92FF11DE6
:102C900080818093A80880917F298F5F80937F290E
:102CA000C0CF80917E29891760F484E090E0809302
:102CB0007A2990937B2980917C2981608093A70851
:102CC000B0CF80917D29882329F083E08093A408E8
:102CD00081E0C4CF81E0FACF87FF40C090917E2988
:102CE000809180299817D8F48091A808E0917E29D6
:102CF00020916D2930916E29E20FF32FF11D808311
:102D000080917E298F5F80937E2990918029809188
:102D10007E298917D8F482E08093A40882CF80911D
:102D20007D29882389F087E08093A40882E080933E
:102D300084291092852981E090E080937A299093EC
:102D40007B29109280296DCF85E0EECF80917D297F
:102D5000882311F087E0BACF85E0B8CF86E07ECF38
:102D6000CF931092802A1092812A88EE93E0A0E0FF
:102D7000B0E08093822A9093832AA093842AB09310
:102D8000852A41EB53E840937E2A50937F2A40E402
:102D900058E040938A2A50938B2A10928C2A41E063
:102DA00040938D2A10928E2A1092902A1092912A86
:102DB0001092922A1092932A40E24093942A109201
:102DC000952A1092962A1092A2291092A3298093F4
:102DD000A4299093A529A093A629B093A7298BECA9
:102DE00093E88093A0299093A12940913028509195
:102DF00031286091322870913328769567955795E0
:102E0000479580E0413099E059079DE369077105D6
:102E100040F076956795579547958F5F863091F787
:102E200087E094E09093AD29982F9095292F2170F9
:102E300030E094E0220F331F9A95E1F78162822BF4
:102E40008093AC298EE79AE28093172B9093182BEE
:102E50001092AE291092AF291092B0291092B12988
:102E60001092B2291092B3291092B4291092B52968
:102E70001092B6291092B7291092B8291092B92948
:102E80001092BA291092BB291092BC291092BD2928
:102E90001092BE291092BF291092C0291092C12908
:102EA0001092C2291092C3291092C4291092C529E8
:102EB0001092C6291092C7291092C8291092C929C8
:102EC0001092CA291092CB291092CC291092CD29A8
:102ED0001092CE291092CF291092D0291092D12988
:102EE0001092D2291092D3291092D4291092D52968
:102EF0001092D6291092D72987E19BE28093D82996
:102F00009093D9291092DA291092DB291092DC29AA
:102F10001092E0291092E1291092E2291092E329FF
:102F20008FEF9FEF8093E4299093E5298093E62922
:102F30009093E72983E08093E8291092E929109281
:102F4000EA291092EB291092EC2910926D2AEDEEED
:102F5000F9E280E8DF011D928A95E9F71092702A64
:102F60001092712A1092722A1092732A1092742A67
:102F70001092752A1092762A1092772A1092782A47
:102F80001092792A10927A2A10927B2A10927C2A27
:102F900010927D2A10929B2B10929C2B81E693E03D
:102FA0008093292C90932A2C10922B2C10922C2C4D
:102FB00010922D2C10922E2C1092B52B81EF93E8AD
:102FC0008093992B90939A2B10929D2B10929E2B6D
:102FD0001092B22B1092A92B1092AA2B1092AB2B0D
:102FE0001092AC2B8FEF8093B32B8093B72BEBEB2E
:102FF000FBE281ED9BE2CFEFC1938E179F07E1F7D4
:103000008AEF99E08093A12B9093A22B8FEE9AE008
:103010008093A32B9093A42B88E291E18093A52B1E
:103020009093A62B82E791E18093A72B9093A82BF6
:1030300030E020E040E069E08DE99BE20E94FA097F
:103040001092F72B1092F82B8BE693E08093D12B04
:103050009093D22B89E19BE28093D52B9093D62B32
:1030600081E08093D72B1092D82B1092062C1092CF
:10307000262C1092222C8093272C8093282C85EFCD
:1030800093E88093D32B9093D42B8DE99BE20E94FD
:10309000690B1092EF2B1092F02B1092F32B1092E1
:1030A000F42B8FEF9FEF8093F12B9093F22B809373
:1030B000F52B9093F62BE091D32BF091D42B02803B
:1030C000F381E02D8DE99BE209958AED93E08093F1
:1030D000F92B9093FA2B1092092CC093C62BC09316
:1030E000C72BC093C82B0E94D70660932F2C7093D8
:1030F000302C8093312C9093322CCF910895CF9324
:10310000DF93CDB7DEB76097CDBFDEBF88ED90E02F
:1031100084BF9093610080E094E2A4EFB0E08093DC
:10312000302890933128A0933228B093332880918F
:10313000020686608093020680910006816080937B
:103140000006809102068F7C809302068091A00089
:103150008F788093A00080910206806180930206A0
:103160001092E205CC24C394C092E40573E0772E5C
:103170007092010A2FEF30E02093260A3093270A3D
:1031800080E890E08093380A9093390A80933A0A55
:1031900090933B0A80933C0A90933D0AEBE0FE2E0D
:1031A000F092000A8091E50581608093E5058091A9
:1031B000E50582608093E505F7E0DF2ED092810A75
:1031C0004FEF40938C0A90E890938D0A85E08093AE
:1031D000800AD092910A40939C0A90939D0A809312
:1031E000900AD092A10A4093AC0A9093AD0A8093C2
:1031F000A00A80E094E080939A2990939B29809183
:103200009A2990919B29B9010E94271D60939829C2
:103210007093992980919A2990919B29A8EEAA2EC2
:10322000A3E0BA2EB5010E94271D609390297093E8
:10323000912980919A2990919B29B5010E94271D7F
:1032400080938E2990938F2920938C0A30938D0A36
:103250008091850A81608093850A84E08093800A4A
:103260008091800A81608093800A789480E390E066
:103270000E94A41D8C01DC011396DC921397149616
:103280007C9214971596DC92159716961C921697B9
:103290001796CC92179782E3682E18966C9218971F
:1032A0001996AD92BC921A979AEF892E912C1B9683
:1032B0008D929C921C97F801158616861786108AA7
:1032C000118E128E138E148E158E168E178E10A2DE
:1032D00011A212A213A214A215A216A217A210A63E
:1032E00011A612A613A614A615A616A617A68CE05C
:1032F0008083F1828AE0828362E070E08CE00E9449
:10330000E80562E070E0D80111968C910E94E80512
:1033100062E070E0F80182810E94E80500938C2948
:1033200010938D2980E390E00E94A41D7C01DC01B4
:103330001396DC92139714967C9214971596DC9250
:10334000159716961C9216971796CC921797189663
:103350006C9218971996AD92BC921A971B968D9203
:103360009C921C97FC01158616861786108A118E72
:10337000128E138E148E158E168E178E10A211A219
:1033800012A213A214A215A216A217A210A611A689
:1033900012A613A614A615A616A617A681E1808369
:1033A00085E1818384E1828362E070E081E10E94B3
:1033B000E80562E070E0D70111968C910E94E80563
:1033C00062E070E0F70182810E94E805E0928A29BC
:1033D000F0928B2961E070E082E00E94180581EA9A
:1033E00093E1D8015C968D939C935D9783EE96E074
:1033F00098968D939C93999787E893E1F701848F32
:10340000958FE091D829F091D92980819181DC01B3
:10341000ED91FC910484F585E02D42E15AE760E0EE
:1034200070E009951092DA291092DC291092DB29BC
:103430001092E2291092E3291092E0291092E129DA
:103440008FEF9FEF8093E4299093E5298093E629FD
:103450009093E7290E94D7066093702A7093712A8F
:103460008093722A9093732A10926D2A1092EA29FF
:103470001092E9291092EB291092EC2910926E2AF1
:1034800010926F2A1092E829E091A12BF091A22BC3
:1034900030E020E040E06AE08DE99BE209958DE9AB
:1034A0009BE20E9475148DE99BE20E944B148111EE
:1034B000FACF60E08DE99BE20E94BB10E091A12B66
:1034C000F091A22B30E020E040E06BE08DE99BE240
:1034D00009958DE99BE20E94751490E9C92E90E050
:1034E000D92E27E9222E20E0322E38E9432E30E073
:1034F000532E49E9642E40E0742E5AE9A52E50E07F
:10350000B52E6BE9862E60E0962EFE0131967F0186
:103510008091F72B9091F82B8059904009F48FC03F
:10352000C092F72BD092F82BF601849180930A2C4D
:10353000E1E9F0E0849180930B2CE2E9F0E08491E2
:1035400080930C2CE3E9F0E0849180930D2CE4E966
:10355000F0E0849180930E2CE5E9F0E08491809373
:103560000F2CE6E9F0E084918093102CF101849116
:103570008093112CF20184918093122CF301849199
:103580008093132CF50184918093142CF401849181
:103590008093152CECE9F0E0E491E093162CEDE932
:1035A000F0E0E491E093172CEEE9F0E0E491E09391
:1035B000182CEFE9F0E0E491E093192CE0EAF0E058
:1035C000E491E0931A2C61E180E990E00E949A0E68
:1035D00080931B2C90931C2C63E180E990E00E9467
:1035E0009A0E80931D2C90931E2C65E180E990E04B
:1035F0000E949A0E80931F2C9093202C8091F72B81
:103600009091F82B892BD9F08091172C8093232C43
:103610004091182C4093242C9091222C992379F0DE
:10362000913009F002C19091192C891714F49093EC
:10363000232C80911A2C841714F48093242C01E6F7
:1036400013E000939F2B1093A02B6BEF73E880E1A6
:1036500090E00E94711000939F2B1093A02B65E0C7
:1036600074E880E290E00E94711000939F2B109309
:10367000A02B6BE074E880E390E00E94711086E17B
:1036800094E89F938F9389E194E89F938F93FF929F
:10369000EF920E94D01E00939F2B1093A02BB70196
:1036A00080E490E00E9471108DE99BE20E944B142F
:1036B0000F900F900F900F900F900F90811128CFC7
:1036C00060ED77E080E090E00E94A7060EE3202EF8
:1036D000312C5524539480E3482E8DE99BE20E94BF
:1036E000751480918C2990918D290E94EF11809101
:1036F0008A2990918B290E94EF1180918729882334
:1037000009F431C10E94D70600912F2C1091302C62
:103710002091312C3091322C601B710B820B930B5A
:10372000633071058105910558F070E060E082E03A
:103730000E94710510928729809186290E94651345
:10374000C0902E28D0902F28E0902C28F0902D2883
:1037500086010D5F1F4F97012D5F3F4FA60142501D
:103760005109B701625071098DE99BE20E94BB0BC0
:103770008111E0C0E0908829F090892980E2A82E8C
:10378000B12CAE18BF086501CC0CDD1CAA0CBB1C0B
:10379000AA0CBB1C4701880C991C3501680C791CCC
:1037A00086010E0D1F1D9301A701B4018DE99BE257
:1037B0000E94BB0B882381F100E09501A701B401B1
:1037C0008DE99BE20E94A20C82E0C816D10420F190
:1037D00092E0C91AD108AFEFEA1AFA0AC114D1046B
:1037E00099F001E09601A701B4018DE99BE20E94E6
:1037F000A20CB301615071099601A7018DE99BE20A
:103800000E94A20CEC0CFD1C00E09501A701B40184
:103810008DE99BE20E94A20C8DE99BE20E944B1471
:1038200081115FCF0E94010558CF3091142C209157
:10383000162C082E000C990B622F022E000C770B11
:10384000630F711D37FD7A95861797071CF4320FA9
:103850003093232C24170CF0F2CE2093242CEFCE9F
:103860006FE370E0681B790B660F771F64177507AD
:103870006CF4E0910028F0910128E0932A28F0935D
:103880002B2860932C2870932D28BDC0E217F307D6
:1038900034F1E0910028F0910128E0932A28F09378
:1038A0002B28029680932E2890932F28EE0FFF1F2F
:1038B000EE0FFF1FEE5FF74D828193819195819509
:1038C00091098283938361E070E082E00E94710538
:1038D00050928729F8E1F093862988E1ABC0A101D5
:1038E000481B590B421753070CF0A6C0E091002863
:1038F000F0910128E0932A28F0932B2840932E285A
:1039000050932F28EE0FFF1FEE0FFF1FEE5FF74DB6
:10391000828193819195819591098283938361E05E
:1039200070E082E00E9471055092872958E150931F
:103930008629D3CF9601A70162E070E090E080E095
:103940000E944D0D9601A70162E070E081E090E0D9
:103950000E944D0D9601A70161E070E082E090E0C9
:103960000E944D0D07CF0E94D706AB01BC0180918C
:103970002F2C9091302CA091312CB091322C4E965E
:10398000A11DB11D84179507A607B70708F0D8CE6B
:1039900020912E2830912F28E0912A28F0912B2871
:1039A000EE0FFF1FEE0FFF1FEE5FF74D40912C282B
:1039B00050912D2880819181480F591F40932C28C8
:1039C00050932D2882819381280F391F20932E2810
:1039D00030932F288091882990918929FC01319674
:1039E000BF01660F771F461757070CF039CF60935A
:1039F0002C2870932D28E0910028F0910128E09365
:103A00002A28F0932B28EE0FFF1FEE0FFF1FEE5F0B
:103A1000F74D808191819195819591098083918362
:103A200061E070E082E00E94710550928729409227
:103A3000862980E30E9465130E94D70660932F2C8D
:103A40007093302C8093312C9093322C79CEAA1B1A
:103A5000BB1B51E107C0AA1FBB1FA617B70710F079
:103A6000A61BB70B881F991F5A95A9F780959095AB
:103A7000BC01CD010895A1E21A2EAA1BBB1BFD01BA
:103A80000DC0AA1FBB1FEE1FFF1FA217B307E4073D
:103A9000F50720F0A21BB30BE40BF50B661F771F95
:103AA000881F991F1A9469F7609570958095909575
:103AB0009B01AC01BD01CF010895052E97FB1EF4BB
:103AC00000940E94741D57FD07D00E943B1D07FC07
:103AD00003D04EF40C94741D50954095309521956B
:103AE0003F4F4F4F5F4F089590958095709561952A
:103AF0007F4F8F4F9F4F08950E94951DA59F900D5A
:103B0000B49F900DA49F800D911D11240895B7FFBF
:103B10000C947C1D0E947C1D821B930B0895EE0F5C
:103B2000FF1F0590F491E02D0994A29FB001B39F6F
:103B3000C001A39F700D811D1124911DB29F700DB6
:103B4000811D1124911D08950F931F93CF93DF932F
:103B50008230910510F482E090E0E091352CF091F4
:103B6000362C30E020E0B0E0A0E0309799F4211549
:103B7000310509F44AC0281B390B24303105D8F52A
:103B80008A819B816115710589F1FB018283938391
:103B9000FE0111C0408151810281138148175907EC
:103BA000E0F04817590799F4109761F012960C93BA
:103BB000129713961C933296CF01DF91CF911F91EC
:103BC0000F9108950093352C1093362CF4CF2115C6
:103BD000310551F04217530738F0A901DB019A0172
:103BE000BD01DF01F801C1CFEF01F9CF8093352C82
:103BF0009093362CCDCFFE01E20FF31F819391936A
:103C00002250310928833983D7CF2091332C30912A
:103C1000342C232B41F420913628309137282093DF
:103C2000332C3093342C20913428309135282115B1
:103C3000310541F42DB73EB74091382850913928CD
:103C4000241B350BE091332CF091342CE217F30751
:103C5000A0F42E1B3F0B2817390778F0AC014E5FFC
:103C60005F4F2417350748F04E0F5F1F4093332CEA
:103C70005093342C819391939FCFF0E0E0E09CCF60
:103C8000CF93DF930097E9F0FC0132971282138201
:103C9000A091352CB091362CED0130E020E010974A
:103CA000A1F420813181820F931F2091332C309118
:103CB000342C2817390709F061C0E093332CF093B6
:103CC000342CDF91CF910895EA01CE17DF07E8F594
:103CD0004A815B819E0141155105B1F7E901EA83F3
:103CE000FB8349915991C40FD51FEC17FD0761F46F
:103CF000808191810296840F951FE90188839983C1
:103D0000828193818A839B83F0E0E0E012968D911B
:103D10009C9113970097B9F52D913C911197CD0186
:103D20000296820F931F2091332C3091342C281748
:103D3000390739F6309751F51092352C1092362C00
:103D4000A093332CB093342CBCCFC283D383408157
:103D50005181840F951FC817D90761F44E5F5F4FDB
:103D600088819981480F591F408351838A819B81A3
:103D7000828393832115310509F0B0CFE093352C70
:103D8000F093362C9ECFFD01DC01C0CF128213824E
:103D9000D7CFDC0101C06D9341505040E0F708954A
:103DA000AEE0B0E0E6EDFEE10C947F210D891E89C6
:103DB00086E08C8309831A838FEF9FE78D839E8330
:103DC000AE01475E5F4F6F89788DCE0101960E94EC
:103DD000F31E2F813885020F131FF80110822E96D3
:103DE000E4E00C949821ABE0B0E0E9EFFEE10C9444
:103DF00071217C013B018A01FC01168217828381BB
:103E000081FFC8C1CE0101965C01F7019381F301E6
:103E100093FD859193FF81913F01882309F453C15C
:103E2000853239F493FD859193FF81913F0185326D
:103E300029F4B70190E00E94E320E7CF912C212CD8
:103E4000312CFFE1F31538F08B3211F190F4803210
:103E500009F1833229F137FC3CC020ED280F2A30CC
:103E600050F536FE20C08AE0989E200D1124922E37
:103E700006C08D3291F0803371F7689430F8F30109
:103E800093FD859193FF81913F018111DACF21C08C
:103E9000689431F8689432F8F2CF689433F8EFCF31
:103EA000689434F8ECCFEAE02E9E200D1124222EE7
:103EB000689435F8E4CF8E3229F436FC04C1689456
:103EC00036F8DDCF8C3619F4689437F8D8CF8836B9
:103ED000B1F2982F9F7D95549330E0F08336A1F195
:103EE0008337C1F1833509F063C02801F2E04F0E3A
:103EF000511CF801C080D180692D70E036FC02C0F1
:103F00006FEF7FEFC6010E94CD204C01689437F817
:103F100082010AC00C5F1F4FFFE3F983882483945A
:103F2000912C6501E89437F833FE2DC0522C811492
:103F3000910471F5552009F468CFB70180E290E053
:103F40000E94E3205A94F6CFF801808189830E5FA6
:103F50001F4FE4CF2801F2E04F0E511CF801C08042
:103F6000D180692D70E036FC02C06FEF7FEFC60193
:103F70000E94D8204C018201D5CFB70180E290E0A9
:103F80000E94E3202A942814190409F0B0F7CECF38
:103F9000F60137FC859137FE81916F01B70190E002
:103FA0000E94E32051105A94F1E08F1A9108BFCF7C
:103FB000843619F0893609F077C0F80137FE6BC0F6
:103FC00060817181828193810C5F1F4FF32DFF7699
:103FD0003F2E97FF09C090958095709561957F4F12
:103FE0008F4F9F4F689437F82AE030E0A5010E9478
:103FF0001321C82ECA188C2C432C36FE0CC0E89412
:1040000040F8C91440F434FE05C032FC03C0F32D5F
:10401000FE7E4F2E892C44FE95C0FE01EC0DF11D55
:104020008081803309F087C0242D297E422E842D83
:104030008870582E43FC95C040FE8FC09C2C821483
:1040400018F42C0C922C981844FE91C0B70180E310
:1040500090E00E94E32042FE09C088E790E041FE24
:1040600002C088E590E0B7010E94E320C91408F47B
:104070008AC0CA94D12C9FEFC91AD90ACA0CDB1C7A
:10408000F60182916F01B70190E00E94E320AC1429
:10409000BD04B1F74FCF60817181072E000C880BF2
:1040A000990B0E5F1F4F92CFD32CE894D4F82AE0DF
:1040B00030E0853739F1232D297FD22E8F3601F15B
:1040C00048F48835A9F0F701868197812B96E2E1C3
:1040D0000C948A21803749F08837A9F7D4FE02C0B2
:1040E0006894D2F820E130E00DC06894D4F8F6CF9F
:1040F00034FE03C0822F8660D82E20E132E002C059
:1041000028E030E0F801D7FE0FC060817181828124
:1041100093810C5F1F4FA5010E941321C82ECA185E
:104120003D2CE89437F867CF6081718190E080E0A2
:104130000E5F1F4FF0CF42FC02C0839478CF839470
:10414000839475CF842D867809F471CFF6CFB701AB
:1041500080E290E00E94E32083948214C0F3512C0B
:1041600073CF522C5818821408F46ECFF8CF842DD8
:10417000867809F47BCF8BE241FE80E247FC8DE23A
:10418000B70190E071CFB70180E390E00E94E32097
:104190009A946CCF8FEF9FEF99CFFC0105906150FF
:1041A00070400110D8F7809590958E0F9F1F08954D
:1041B000FC016150704001900110D8F780959095F6
:1041C0008E0F9F1F08950F931F93CF93DF93182F88
:1041D000092FEB018B8181FD09C01FEF0FEF812FAC
:1041E000902FDF91CF911F910F91089582FF14C0FE
:1041F0002E813F818C819D81281739073CF4E8810D
:10420000F981CF0101968883998310838E819F81E4
:1042100001968E839F83E3CFE885F985812F0995E9
:10422000892BA1F3DACFFA01AA27283051F12031E6
:1042300081F1E8946F936E7F6E5F7F4F8F4F9F4F3A
:10424000AF4FB1E03ED0B4E03CD0670F781F891F7C
:104250009A1FA11D680F791F8A1F911DA11D6A0F4A
:10426000711D811D911DA11D20D009F468943F91FD
:104270002AE0269F11243019305D3193DEF6CF01FC
:104280000895462F4770405D4193B3E00FD0C9F7C2
:10429000F6CF462F4F70405D4A3318F0495D31FD2F
:1042A0004052419302D0A9F7EACFB4E0A695979582
:1042B000879577956795BA95C9F700976105710558
:1042C00008959B01AC010A2E0694579547953795A2
:1042D0002795BA95C9F7620F731F841F951FA01DFC
:1042E00008952F923F924F925F926F927F928F929A
:1042F0009F92AF92BF92CF92DF92EF92FF920F9375
:104300001F93CF93DF93CDB7DEB7CA1BDB0BCDBFB7
:10431000DEBF09942A88398848885F846E847D844A
:104320008C849B84AA84B984C884DF80EE80FD805D
:104330000C811B81AA81B981CE0FD11DCDBFDEBFFB
:08434000ED010895F894FFCF90
:104348001815A015C019FF1815A115C819FF1815BB
:10435800AE19FF1815AF19FF1815AE15D51680152B
:10436800A8163F15D316001540158D1614152016DE
:104378000015A115C815DA1612158116CF15D9160C
:10438800F115DB1640152E15A415A619FF0001140A
:104398000A6464323200127A000004289610080079
:1043A8000080004000000000007604E6061604F4D1
:1043B800030804CF047E13ED0522041307E5030068
:1043C8000000007E08590852083F0830082F084EA0
:1043D800090909FC08F808C008A1089908CF08C706
:1043E800080808030800000000E313BB13690BF476
:1043F8000B590B20424F554E43494E47002042412E
:104408004C4C00204259204349594C4142007631D6
:054418000020257300E7
:10441D000400060000000600010006000200050071
:10442D000300050004000400050003000500020060
:10443D0006000100060000000600040040002000F8
:0A444D000024F4000000372C80006A
:00000001FF
